:20000000003C0120C14E0200795B0200795B0200795B0200795B0200795B0200795B02006E
:1C002000795B0200795B0200795B0200795B0200795B0200795B0200BD310100D1
:2000400038B586B004468DF805104FF6FF720120ADF80220090ADFF8D45AADF80000022319
:200060008DF806108DF8043069462A78204628F0B3FF162803D12978204628F0A9FF07B01B
:2000800030BD3EB504000D461ED0DFF8A40A0068224628F099FFFF2815D000200090002357
:2000A00001AA2946204619F08FFA60B99DF8040000F075F9C00606D59DF8040000F06FF98C
:2000C00010F0040000D001203EBDFEB5164615244FF6FF7290420D4615D100208DF804007E
:2000E000DFF8487A9DF80400F97988421AD23246294600F03AF800B100249DF80400401CD3
:200100008DF80400EEE728F05BFF50B100F0A7FB40B99DF804003246294600F026F80024D1
:2001200000E014242046FEBD7CB50D46044606214C43164600F080F8A8B900F078F890B934
:200140009DF80700002E14BF054320EA0505E9B2814206D08DF807506A460821A0B225F056
:2001600073FE012076BD002076BD2DE9FC410646344606235C438846154600F05DF80028F0
:2001800052D100F054F800284ED1DFF8A079387A800027F0E7FF040002D100F02BFA43E08B
:2001A000397AE03689062246090EB0B225F038FE002835D1204600F058F85FEA08000ED1B7
:2001C0003A7A9206120E0021204626F0A9FD38BB3A7A92000021204627F02EFC16E0214612
:2001E00000F030F858B9280004D02146002000F029F810B900F01EFC16E0A0F80080817868
:20020000A9420DD085700DB900210180204600F02CF8397A89062246090EB0B225F014FEF5
:2002200000F008FC012000E00020BDE8F6810622FF21684626F074BD20346A460821A0B2D1
:2002400025F0EEBD70B5DFF8E4381D7A002200E0521CD4B2AC4206D231F824608642F7D136
:2002600001EB840070BD002070BD10B50021DFF8BC280AE030F82130DB4320F8213000EB1E
:200280008103491C9C78E4439C70137A9942F1DB10BD2DE9FE4FDFF894480646207A0F46DC
:2002A00091469B46800027F05DFF5FEA000803D100F0A0F90A206CE00C9D0297B246062708
:2002C00017FB0AF7029A07F12000082100F064F88DF80400304600F09FF8227A9200FF210E
:2002E000404627F0A9FB9DF804000090E036217A89064246090EB0B225F0A6FD009E029962
:200300000643206A082200EBCA0027F09FFBBDB10299887900232A4600F0010028F04CFE8A
:2003200000281CBF9DF93C00002803D0DFF804180120087007F123002A4600F02CF8064379
:200340005FEA090205D007F121001C2100F024F806435FEA0B0205D007F122001C2100F057
:200360001BF806430D9A62B107F1240000F013F8054625370EAA0421B8B225F065FD0543A3
:200380002E43A07D08B100F09FFA404627F0F2FEF0B2BDE8FE8F102180B225F055BDE0B50D
:2003A0000623584320306A46082180B225F038FD10B99DF807000EBD00200EBDDFF86C076F
:2003C0000078082117F0FABA38B50025DFF85C4719E0206A062313FB05F300EBC50220337E
:2003E000082198B225F01CFD58B1206A0622FF2100EBC50027F020FB206A00EBC501002242
:20040000CA716D1CEDB2E1798D42E2DBA07D10B1BDE8314058E231BDF8B5DFF81017DFF8F5
:200420001837C9791E680C460A4600E02A46D5B23DB1551ED2B2324412F8017C8742F5D1BB
:200440002C46E4B220464D1E07E01718165C7F7817541A680244401C5670A8421A68F4DBB4
:20046000AC4204DABDE8F840052025F0EDBCF1BD70B50024DFF8B45600E0641CE879E3B2C2
:2004800083420BD22B6AE6B20622FF2103EBC60026F046FC0028F0D0E0B270BDDFF89C26F9
:2004A000117839B1DFF8900601680C78204600F013F8204670BD38B500200024DFF86C56B1
:2004C00003E0E0B200F008F8641CEA79E1B2914201D20100F5D032BD2DE9F84F83465D461D
:2004E000062313FB05F58EB005F1200701AA0821B8B225F095FC002873D10622FF2101A82F
:2005000026F00EFC00286CD1DFF82066307A800027F028FE5FEA000903D100F06BF80A20EF
:2005200061E01C22FF2103A827F086FA327A9200FF21484627F080FA05F123040AAA10215B
:20054000A0B225F06DFC60B91022FF210AA826F0E7FB30B99DF80A0001A900F0010028F07B
:2005600027FD082200F042F801AA0821B8B225F06BFC8DF8000003AA05F1210000F03DF8DB
:20058000074605F1220003AA00F037F8804603AA1021A0B225F058FC044605F1240003AABA
:2005A000102100F02BF88246253503AA0421A8B248EA070725F048FC2743317A9DF8005016
:2005C0004AEA0707074389060BF1E0034A46090E98B225F039FC0743484627F0CBFD3D43AF
:2005E00000E0002528460FB0BDE8F08FFF2101A827F022BA042025F05DB91C2180B225F016
:2006000023BC2DE9F84187B0FF208DF80000DFF81C55E87927F0A6FD040003D1FFF7EAFFB7
:200620000A2030E01022FF2103A827F005FAEA79FF21204627F000FA0622FFF7D7FF03AAD2
:200640001021022025F000FC064603AA1021032025F0FAFB06436A460121042025F0F4FB9C
:200660000746E9792246052025F0EEFB054601AA0621062025F0E8FB804600F0DBF93E43FA
:200680002E4348EA060008B0BDE8F081DFF89C144088097825F038BBF0B5A9B006460D466E
:2006A000144628F08DFC08B91420ACE0A4220021684627F0C1F9ADF800600DF12607DFF851
:2006C0006C64F078F17B8DF80400307C8DF8A000279861F30000F17B27908A074CBF022226
:2006E000002220F0020010432790CA064CBF4FF48072002220F48070104327908A064CBFE1
:200700004FF40072002220F40070104327904A064CBF4FF48062002220F4806010432790D4
:2007200049074CBF0421002120F0040008432790707C02280CBF01200020787428F034FCAC
:20074000412807DB707C00B108209DF8991008438DF89900F07CB8B10121B974202206F185
:2007600088010DF1390027F071F9202206F1A8010DF1590027F06AF9202206F1C8010DF185
:20078000790027F063F900E0B874707B8DF8050090B1DFF8AC73102207F110010DF1060076
:2007A00027F054F99DF89900082805D1102239460DF1160027F04AF9307B8DF8260030B14B
:2007C0001022DFF880130DF1270027F03FF9307948B1022D18BF032D03D1279840F002006C
:2007E0002790012100E000219DF899000143B0788DF8991000B1042001438DF89910684662
:20080000214628F0CDFB29B0F0BD2DE9FC41154615244FF6FF72904288460ED10027DFF8F1
:200820000C63F179F8B2884216D22A464146FFF77BFC00B100247F1CF3E728F0C1FB50B100
:2008400000F00DF840B99DF804002A464146FFF76BFC002400E014242046BDE8F6810021DE
:2008600000910023417901AA01F00101801D18F0ABBE70B504460D4606204543082B88B083
:20088000164603D1300758BF223500D521351C220021FFF7ACFE01AA1C21A8B225F0C0FA48
:2008A00080B99DF81E00C01F0A280BD29DF830000090F20801AB02F0010206F00101204610
:2008C00028F06AFB08B070BD38B528F061FB0024964D0FE0286A0622FF2100EBC40026F0C0
:2008E0001FFA28B9286A00EBC401002028F04CFB641CE4B2E8798442ECDB31BDF0B5924CC8
:200900000646606885B04FF6FF7538B9009402238E4A2946012028F033FB6060616821B320
:200920000222FF2002920023039001930DF112072288009704AB30460AF0CCF868B99DF8A5
:2009400010009DF8111000EB012290B228B16068418992B23046FFF7B8FB2288606800231E
:20096000294628F009FB606008B9012000E0002005B0F0BD3EB50C4600250146009500237F
:2009800001AA204618F020FE38B99DF80400FFF706FDC00601D401203EBD00203EBD2DE9B5
:2009A000F0416B4F3C6806468846154603E02089B04224D02468002CF9D10C2027F0D2FB2F
:2009C000040019D0268184F80A8000202060E07245B10821284626F065FB606018B900F007
:2009E00029F80AE06060396811B93C6004E0014608680028FBD10C600CB9152018E028F020
:200A0000B7FA08B1002013E00120E0722A4641463046FFF741FE04464448C06900281CBF42
:200A20004368002B03D000220021304698472046BDE8F081204627F09DBB38B50546444860
:200A4000046803E02089A84204D02468002CF9D1012032BDE07A012807D100F05CF820B1DE
:200A600032480078042116F0A9FFE17A491CE1722846C9B200F002F8002032BD38B50229A4
:200A800004462A4D02D003290DD01EE042F6C921FFF7D6FA02001CBFE869002818D04368EB
:200AA000B3B105210CE042F6A621FFF7C9FA01001CBFE96900290BD04B684BB102460421BA
:200AC000204601B0BDE830401847BDE8324000E031BD10B51E4A1468002101E02146246808
:200AE0006CB123898342F9D1206800290CBF10600860606808B127F03DFBFFF79BFF0020CA
:200B000010BD024604201249096819B10B899342FAD1C87A70470E48006828B1006818B111
:200B2000C17A0029FAD1704700207047F41C0020680F0020E848002058480020E7480020D2
:200B4000F844002028450020A447002090D102005C4800202DE9F04385B0064600208946C1
:200B6000009090461C46B179002304AA304618F02BFD20B1FFF77CFC8DF810001BE0D4B1B8
:200B80009DF810300620434323336A46102198B225F046F978B91022FF21684626F0C0F800
:200BA00048B9B079314600F0010028F001FA10B1194901200870194F9DF81000F97988428B
:200BC00027D201200390009443460C980D990E9D019002914A469DF810003146FFF759FB3C
:200BE000044655B1397A9DF810008906E0302A46090E80B225F028F90443200005D09DF8EE
:200C00001000FFF769FCFFF7DFFB204605B0BDE8F0831520FAE700BFE8480020F41C002011
:200C20002DE9F04F054687B0A978DFF8D466002710294FF0060A3CD8DFE811F011005E03AE
:200C40005E035E035E033C00CF005E035E03C1021501000113035E039702D90256036878A6
:200C6000002826D128F080F9044628F079F9054628F072F98DF8000022461021022025F0CD
:200C8000E3F82A461021032025F0DEF86A460121042025F0D9F89DF80000012818BF03282E
:200CA00007D1012028F054F902460621062025F0CBF821E368780028FBD195F80CB06C8953
:200CC00000900023E97801AA01F00101281D18F07BFC00284FF0010875D19DF80400FFF759
:200CE0005EFB8146BBF1080F307A08BFB846800027F038FA050003D1042024F0DBFDFBE213
:200D000070789DF8041002280CBF0120002000905B464A462046FFF7ACFD1422002102A845
:200D200026F08AFE9DF804001AFB00F0243002AA102180B225F074F8B0B91022FF2102A82E
:200D400025F0EEFF80B99DF804001AFB00FA0AF1250306AA042198B225F062F802AA09F05A
:200D60000101204628F0F0F8317A9DF804008906E0302A46090E80B225F052F898B9284651
:200D8000FFF773FABA4609E005EB8000018819B18278204625F05EFE0AF1010A317A5FFA69
:200DA0008AF08842F0D3B07A30B95FEA897003D53178204624F0A8FF9DF80400FFF72CFB7F
:200DC000284627F0D7F97078022805D1B8F1000F02D020461FF0CEFB8EE2A888FFF779FE01
:200DE00028F0AEF80028F7D1F07D012808D1FFF762FBF279706AF775002126F01DFE17E089
:200E0000307E012803D1FFF7FCFB377610E000240AE0706AE5B2415D012904D1E0B2FFF7F9
:200E20005BFB716A4F55641CE0B2F1798842F0D3502025F0BFFEFFF7C7FA5DE228F098F8F4
:200E400000280CD0F06900281CBF0468002C07D0286900906B7B2A7B6989E81CA0474AE20E
:200E6000688901213DE268780024002840F0DA80A879C10740F1D6800822002105A826F00C
:200E8000DBFDA88828F09CF8040076D06F694FB30622002107F1110025F042FF68B306228F
:200EA0000021384625F03CFFD0B9387C00F001084FF0000909F1010987F8119000200090F1
:200EC00000230022414607F1110018F07DFB00285FFA89F002D10028ECD101E000280CD125
:200EE000002068610622607900F001008DF81A00A11D05A826F0AAFD1FE06F69EFB1387C25
:200F000000F001008DF81A00062207F1110105A826F09CFD6079012805D10622A11D04F100
:200F20000C0026F093FD062207F11101A01D26F08DFD387C40F002006071A87941072079B7
:200F40004CBF40F0020000F0FD002071A9790A0754BF00F0DF0040F020002071A9799DF829
:200F60001B00890801F0010108438DF81B00A9790A074CBF0821002108E0FFF7CCFD002890
:200F8000ECD03078042116F019FDE7E708438DF81B004FF0FF096969DFF86883FF241E27B0
:200FA00031B31022684626F051FD1021684627F0C3FF4FF0000BDFF8509303E00BF101006D
:200FC0005FFA80FB99F80000834510DAD8F8001017FB0BF00A5CFF2AF0D0084400F10D0173
:200FE0001022684626F050F80128E7D15C46A1460020009000239DF81A1004AA05A818F054
:20100000E3FAB9F1FF0F57D0342855D1707D00B3012851D1A888052127F08AFF0124A8885C
:20102000FFF757FDF06900281CBF4368002B0FD06A78A888012198476878002808D1A87940
:20104000C10705D5F369A88822465C680321A0474AE1D8F80000002117FB09F90091002347
:2010600010F80910401C04AA484418F0ADFA18BB9DF81000FFF730FAF0B9FFF7A5F9FFF73F
:20108000F7F98DF81000E968686900290CBF00220A69002303930292019100902B69AA680B
:2010A0009DF8100005A9FFF7F4F80446A888FFF725FC200047D14CE00020009000239DF89E
:2010C0001A1004AA05A818F07FFA20B1FFF7D0F98DF810001AE06869C0B19DF810001AFBEF
:2010E00000FA0AF123036A46102198B224F098FE60B91022FF21684625F012FE30B99DF844
:201100001A0005A900F0010027F052FF9DF81000F179884227D2E968686900290CBF0022A4
:201120000A69002303930292019100902B69AA689DF8100005A9FFF7ACF80446A888FFF7CA
:20114000DDFB200005D09DF81000FFF7C5F9FFF73BF9200008D1707A0028A8887FF460AF82
:20116000FFF76BFC5EE7152459E7687806281BD1A88827F025FFB8B1317D012904D013D3F4
:20118000032907D00CD30FE04179A8880022FFF706FC09E00022002140F2094006F056FC8B
:2011A000A888052127F0C4FEF06900281CBF4368002B03D06A78A888022198479BE00097D5
:2011C0000023E97801AA01F00101281D18F0FCF90028F3D19DF804001AFB00FA0AF12503F4
:2011E00005F10C02042198B224F02EFE83E0F06900281CBF4368002B03D0A8880022002161
:201200009847707810B9A88805216AE0A88827F0D7FE040070D0A87AC10712D500970023B3
:201220006179002201F00101A01D18F0CDF900281EBF60790028012803D0E868C0F34020CF
:2012400028B1707C022807D1A87A010704D4A888032127F069FE4FE06179A88805F10802BA
:2012600027E02F7BAD88284627F0AAFE040042D027F07EFE00283ED100900023617901AA43
:2012800001F00101A01D18F09FF928BB9DF80400FFF785F807F00C07042F11D0082F0BD0DF
:2012A0000C2F0FD100F0090109290BD0617900222846FFF774FB1EE010F0090F02D1F5E778
:2012C000C107F3D501220092A37C9DF8041002462846FFF7CEFA0EE070780028E6D10521B2
:2012E000284627F021FE06E0FFF715FC18B13078042116F063FB0127384607B0BDE8F08FE2
:20130000F41C0020680F0020E24800202DE9F84F012023F06DFD012816D1DFF87476387840
:20132000002127F0FDFD040004BF002024F0C2FA00202072201D19F01BFF08F0E1FB0500D9
:2013400003D1812027F0E8FD1EE301206871072027F08DF9DFF83CA6DFF83C269AF80100D8
:20136000401C8AF80100A879A07240203978117017F0B8FF2860616D4A78206DD10620D59A
:20138000816C0A681179032908D0816C0868007903280CBF0120002024F08CFA206D816C3F
:2013A0000A6890F86C0002F1080601281CBF002024F080FA216D486F296800F5B060C86011
:2013C0004AE0416F0A681179032908D0416F0868007903280CBF0120002024F06BFA206D5D
:2013E000416F0A6890F8A00002F1080601281CBF002024F05FFA206DB5F87421D0F8A830A2
:201400002F68DFF89805DFF89815FB6096F826E0BEF1030F1BD8DFE80EF002050E1103F5B7
:20142000B06301E003F53473FB6005F59A720188118702880EE003F5355301E003F6B8739A
:20144000FB6005F59A72088810870A8802E003F5B063FB60A5F8742106222868DFF84475B0
:20146000C168DFF8449501F5B471C160B11C3078C0F3801085F82E0105F12C0805F59470CB
:2014800026F0E4FA042206F10E0105F1240026F0DDFA386895F806C000F10C03042206F115
:2014A0000E0103EB4C1026F0D1FA3868AB7900EB4313032206F1120103F1100026F0C6FAE4
:2014C000707D88F80200022206F1160105F1300026F0BCFA022206F1180105F1320026F007
:2014E000B5FA022206F11A0105F1340026F0AEFAB8F808006884022206F11C0105F1360017
:2015000026F0A4FA98F80200B8F80A10400088F802000901B8F80400A8F80A104000A8F8A1
:20152000040089B2B8F806004000A8F8060003046A8C521CDB0B5A438A4201D280B230B928
:2015400099F80000802116F039FA3B2123E105F12E01284627F0DCFC0520A881284627F06B
:20156000D3FC052206F11E0105F1610026F06EFA96F82300400988F8000027F0C1FC688252
:2015800005F59A72618D401AD08005F1610196F82300DFF8186400F01F0088F80F00284645
:2015A00027F0AAFC616D4A78206DD1064CBF816C416F002308680021017141F62101AA7930
:2015C000306852018152A97900EB41125380A97900EB41104360616DDFF8D4034A78D10604
:2015E0000DD5DFF8D0138A7851060AD5DFF8C823138841F20A418B4208BFDFF8C003C5F851
:201600009C01D5F89C11284688473268A97902F10E03490158543068A97900EB41120020A8
:20162000D0733168A87901F10E024001115C88F80D10606D4178CA061AD595F8960108B936
:2016400024F038F93068A97900EB411295F89601411E11743268A87902EB401100224A746C
:201660003068AA7900F1120152010020885229E03168A87901EB4012206D90F8441011746F
:201680003268A87902EB4011206D90F845204A743168A879CA4A01EB4011107817F070FA15
:2016A000226D92F8443005F5CB71012003F0030398400870226D92F84400800814BF012024
:2016C00002200871A87931683B68400101F11402034413503068A979DFF8E8B200EB4112B6
:2016E000B9489061DBF814000078C107DBF8141009784CBF1F200F208A07DBF814100978D7
:2017000048BF40F020004A07DBF81410097848BF40F040000A073968AA7901EB421348BF15
:2017200040F080001872A979386800EB41120B2050723968AA7901EB42100421A34A81727B
:201740001078012806D13968A87901EB40120121D17207E0DBF824003968AA79407801EB56
:201760004213D8723968A87901EB40121F2111763868AA7900EB421100204876A87917F0FC
:20178000F5FCAA79396852018850AA7939685201885820B90721284624F006FBF4E08C4846
:2017A000AA79016801EB021027F0A2FBA8793968874B01EB4012196801EB00105060A979CA
:2017C000386800EB41125168C8F83C10AA7952018158C8F84410042199F8000016F0EEF861
:2017E000616D4A783068D10648BF022109D4A97900EB4112137C03F00303022B14BF0421D6
:201800000621B8F8042095F806C04FF4C8738A18698AAA615143B1FBF3F35B1C6B6100EB08
:201820004C10D5F800E0DEF80CC040F6C41101FB02C2D21AA2F5A86282603068AA7900EB1D
:2018400042139A682B689A6000F10C03AA7952010C309B5C03F0EF038354A8793268400143
:2018600002F10C030C321B5C03F07F031354A8793268400102F10C030C321B5C03F0F0033C
:2018800043F0020313543068AB7900EB4310427B02F0F00242F0010242733068AA7900EB7E
:2018A000421398682A6810613868AA7998F802C000F1140368694000520111FB0C0000F542
:2018C000F660985095F8960104280DD13868AA7900F114034FEA421C143053F80C20AB795B
:2018E0005B0102F56162C2503868AA7900F114034FEA421C53F80C20C5F83421AA7900EBC7
:201900004210C37C03F0F00343F00403C374DBF830003A68AB79006802EB431CB8F806208C
:2019200042436423B2FBF3F35943A1F59661CCF81C103868A97900EB4110C27E02F0F002CD
:2019400042F00402C2763068A97900EB4112286842600E21284627F0C7FA1E490720087072
:201960002046AA798AF8022022F0E0FB1A488178880704D5AA790021204627F0B1FA28688E
:201980001649174A41618261BDE8F14F26F056BFD50F0020780E0020D70F00208E0F002085
:2019A000900F00209C0E0020C70F0020980E002081010210C00C00209A0F00204DE5011056
:2019C000CA0F002070CB0200980C0020CC0F0020A40E0020C80F0020200E00207149010040
:2019E0000204808082B080B5AEB0319330922C902B9100208DF8AB008DF8AA002C9820B902
:201A0000FFE700208DF8B70011E330A829902C982890FFE72B980078002800F0FD82FFE7E5
:201A20002B98411C2B9100788DF89F009DF89F003B2804D1FFE701208DF8AA00EAE72898FB
:201A400030B9FFE79DF8AA00C00708B9FFE7E7E29DF89F00443801460791302800F2BE8228
:201A60000799DFE811F09F01BB02BB02BB02BB02BB02BB02BB02BB02BB02BB02BB02BB0282
:201A8000BB02BB02BB020802BB02BB02BB02BB02BB02BB02BB02BB02BB02BB02BA02BB022A
:201AA000BB02BB0231004A00BB027A00BB02BB023901BB02BB02BB02BB02BB02BB02BB021B
:201AC000BB02BB025301700100208DF89E00289858B1FFE72898007821F052FE28B1FFE77D
:201AE000289800788DF89E00FFE79DF89E0029990A1D29920968087071E2002026902898FC
:201B0000002823D0FFE72898007821F039FEE8B1FFE728980078453801460691122813D80D
:201B20000699DFE801F00A11111111111111110A111111110D1111110D000120269004E066
:201B40004FF0FF30269000E06AE2FFE7269829990A1D29920968086041E2002025904FF0DD
:201B6000FF31249123902898002800F08680FFE7FFE72898007821F003FE00287CD0FFE77F
:201B8000289800782B280AD1FFE7259838B9FFE72498013018B9FFE70120259068E02898E3
:201BA00000782D280BD1FFE7259840B9FFE72498013020B9FFE74FF0FF30259057E0289834
:201BC000007826F051FB90B3FFE728980078303822902498013018B9FFE700202490FFE752
:201BE0002498229A6FF00041891A46F26762C6F2666251FB02F2911001EBD271884205DDED
:201C0000FFE7239808B1FFE736E009E2249800EB8001229800EB41002490239830B1FFE73F
:201C2000239800EB800040002390FFE71EE0289800782E2806D1FFE7239818B9FFE70120C9
:201C4000239012E02898007820280CD1FFE7259838B9FFE72498013018B9FFE7239808B1F0
:201C6000FFE7DDE100E0DBE1FFE7FFE7FFE7FFE72898013028907CE7FFE7259818B9FFE726
:201C8000239828B1FFE72498013008B9FFE7C7E12498013020B9FFE700202490239006E075
:201CA000239818B9FFE701202390FFE7FFE7259828B1FFE72599249848432490FFE7299836
:201CC000011D2991016824982090239821902098219A4A60086082E100201F90289870B153
:201CE000FFE728981EA90A220FF00AF81F901E98007821F045FD08B1FFE791E1FFE71F986C
:201D000029990A1D29920968086068E12998011D299100681D90289888B1FFE7FFE72898CA
:201D2000007821F02DFD48B1FFE72898411C289100781D994A1C1D920870F0E7FFE71D990D
:201D4000002008704BE1289808B9FFE768E128980078242801D0FFE762E100201C90FFE7DF
:201D60001C9804280EDCFFE728991C980844407821F006FD08B9FFE752E1FFE71C98013081
:201D80001C90EDE72998011D299100681B901B99289842790A71D0F8010008601B99002068
:201DA00048711CE12998011D299100681A904FF0FF301990189017902898002851D0FFE76D
:201DC0002898007821F0DCFC00284AD0FFE700201690FFE7169805280DDCFFE728981699F5
:201DE000405C26F041FA08B9FFE719E1FFE7169801301690EEE7289800788DF85500289843
:201E000040788DF85600002104918DF85710289880788DF852002898C0788DF853008DF8A9
:201E20005410289800798DF84F00289840798DF850008DF851100DF155000A2205920EF0E9
:201E40005FFF0499059A19900DF152000EF058FF0499059A18900DF14F000EF051FF179074
:201E6000FFE719981A99086018981A99486017981A998860B3E02998011D29910068129025
:201E80004FF0FF30119010900F900E902898002800F09680FFE72898007821F071FC0028A4
:201EA00000F08E80FFE700200D90FFE70D9805280DDCFFE728980D99405C26F0D5F908B953
:201EC000FFE7ADE0FFE70D9801300D90EEE7289800788DF83100289840788DF83200002123
:201EE00002918DF83310289880788DF82E002898C0788DF82F008DF83010289800798DF8ED
:201F00002B00289840798DF82C008DF82D100DF131000A2203920EF0F3FE0299039A1190F2
:201F20000DF12E000EF0ECFE0299039A10900DF12B000EF0E5FE0F9028980630289028989E
:201F4000411C289100782E2836D1FFE70020099044F24020C0F20F000890FFE728980078EA
:201F600026F082F901460020019039B1FFE708990020012988BF01200190FFE70198C007DE
:201F8000A8B1FFE7099800EB80012898421C2892007800EB41003038099008984CF6CD4188
:201FA000CCF6CC41A0FB0110C0080890D6E70998089948430E9002E000200E90FFE7FFE7B2
:201FC0001198129908601098129948600F98129988600E981299C86001E000E020E0FFE7F0
:201FE000FFE72C98007821F0CBFB20B1FFE72C9801302C90F5E72C9800782C2806D1FFE757
:202000002C9801302C902C98289002E000202890FFE7FFE7FFF7FEBC01208DF8AB00FFE726
:202020009DF8AB0000F001008DF8B700FFE79DF8B7002EB0BDE8804002B0704780B588B0E8
:202040000020ADF81C00ADF81A008DF8190042F6E010C2F20000028806200DF11A0121F08C
:2020600085FE20B9FFE700208DF81F0086E29DF81B109DF91A0040EA0120ADF81C009DF8E1
:202080001C008006002840F17582FFE742F63410C2F2000001688DF819100021ADF8161035
:2020A00001688DF816100068000A8DF8170042F6E010C2F2000001880DF1160023F0FEF87C
:2020C00020B9FFE700208DF81F0057E242F61A20C2F2000000784FF47A7148434DF2341169
:2020E000C0F202010968B0FBF1F019F0A4FF0020ADF81C00FFE7BDF81C00C006002819D40F
:20210000FFE742F6E010C2F20000028806200DF11A0121F02BFE20B9FFE700208DF81F0077
:202120002CE29DF81A009DF81B1040EA0120ADF81C00FFE700208DF8150042F6E010C2F29A
:202140000000028861200DF1150122F0B1FC20B9FFE700208DF81F0010E252208DF8150020
:2021600042F6E010C2F2000002883E200DF1150122F09EFC20B9FFE700208DF81F00FDE17A
:2021800000208DF8150042F6E010C2F2000002883F200DF1150122F08BFC20B9FFE7002034
:2021A0008DF81F00EAE142F61A20C2F2000000784FF47A7148434DF23411C0F202010968AF
:2021C000B0FBF1F019F037FF00208DF814008DF813008DF812008DF81100FFE742F6E010A8
:2021E000C2F20000018805A823F07FF820B9FFE700208DF81F00C1E142F61A20C2F2000020
:2022000000784FF47A7148434DF23411C0F202010968B0FBF1F019F00EFF9DF814008DF813
:2022200012000020ADF80E00ADF80C00ADF80A00ADF8080042F6E010C2F2000002884A20DC
:202240000DF11A0121F092FD20B9FFE700208DF81F0093E19DF81B109DF91A0040EA012013
:20226000ADF80E009DF81200BDF80E1042F60C12C2F20002126822F082F88DF8120042F650
:20228000E010C2F2000002884C200DF11A0121F06DFD20B9FFE700208DF81F006EE19DF8A9
:2022A0001B109DF91A0040EA0120ADF80C009DF81200BDF80C1042F61012C2F20002126845
:2022C00022F05DF88DF8120042F6E010C2F20000028850200DF11A0121F048FD20B9FFE7FC
:2022E00000208DF81F0049E19DF81B109DF91A0040EA0120ADF80A009DF81200BDF80A1010
:2023000042F61812C2F20002126822F038F88DF8120042F6E010C2F2000002885B200DF173
:202320001A0121F023FD20B9FFE700208DF81F0024E19DF81B109DF91A0040EA0120ADF869
:2023400008009DF81200BDF8081042F61412C2F20002126822F013F88DF812004A208DF8D0
:2023600019000020ADF8060042F60C10C2F2000001688DF807100068000A8DF806009DF9D9
:20238000190042F6E011C2F200010A880DF1060122F0A8FB20B9FFE700208DF81F00EDE0AA
:2023A00042F61010C2F2000001688DF807100068000A8DF8060042F6E010C2F200000288A9
:2023C0004C200DF1060122F08DFB20B9FFE700208DF81F00D2E042F61810C2F20000016840
:2023E0008DF807100068000A8DF8060042F6E010C2F20000028850200DF1060122F072FBEA
:2024000020B9FFE700208DF81F00B7E042F61410C2F2000001688DF807100068000A8DF896
:20242000060042F6E010C2F2000002885B200DF1060122F057FB20B9FFE700208DF81F00C9
:202440009CE09DF812008DF8130060208DF805009DF8050042F6E011C2F200010A880DF1AF
:20246000130122F025FB20B9FFE700208DF81F0084E042F61A20C2F2000000784FF47A7163
:2024800048434DF23411C0F202010968B0FBF1F019F0D1FD42F6E010C2F2000001880DF141
:2024A000110022F022FF20B9FFE700208DF81F0064E042F61A20C2F2000000784FF47A7145
:2024C00048434DF23411C0F202010968B0FBF1F019F0B1FDFFE742208DF8170000208DF8FB
:2024E000160042F6E010C2F2000001880DF1160022F0E4FE20B9FFE700208DF81F003DE0B9
:2025000042F61A20C2F2000000784FF47A7148434DF23411C0F202010968B0FBF1F019F025
:202520008AFD0020ADF81C00ADF80200FFE7BDF81C00C006002819D5FFE742F6E010C2F237
:202540000000028806200DF1020121F00FFC20B9FFE700208DF81F0010E09DF802009DF80F
:20256000031040EA0120ADF81C00FFE701208DF81F0003E001208DF81F00FFE79DF81F004F
:2025800008B080BD2DE9FE4F04460020009080460CB923F08FF904F1500A41F62300DAF848
:2025A00000603080A6F802800222327372736946204615F029FD08B9072041E2009901B1A7
:2025C000B060B0682061DFF87C04017884F8C010DAF80400407A20F063FE25302076207EAC
:2025E000B07386F80F80DAF80400017D022904BF002023F05FF9DAF80400007D012802D18F
:202600000020002104E083280CBF062002202021307404F1240771743146787916F0B0FAD5
:20262000DAF80400417848060AD5607DC10604D5E07F40F04000E07702E040F04000607514
:2026400006F1600504F1300085F804804FF01E09B97E890001F0040129713067607DC10607
:2026600054D5DAF8042051788A060CD500F0FE006075DAF80400417811F0030F03D1E07F69
:2026800000F0FE00E077607D26F026FCA075421C307CC0F38001002392B200F0030026F01D
:2026A00017FCA0831E20A18B01F59B7292FBF0F009FB1020C0B208B1C0F11E00411801F58D
:2026C0009B7161831E20A18B01F596718AB292FBF0F009FB1020A183C0B208B1C0F11E00A8
:2026E0004018A08380B2E27D618B521E50434018608306F13408608BB4308000B0660620E6
:20270000E871E17F41F00801E17721E040F001006075DAF804104A78510744BF40F0020032
:202720006075607D26F0D8FBA0750023401C82B2307CC0F3800100F0030026F0C9FBA08366
:20274000A08B00F59670A083C6F8688085F80780A17D207D61F3050006F1900120750870DD
:202760000322607D48708A704FF0000BB87E800000F0040040F003008870FA7ED20002F04A
:202780000802104388700020C870C6F89800B88BC0F30B00B883DAF80410CA7D40EA023071
:2027A000B8830022617D01F0FE01204614F0C4F8019617E004EB4B160199202206F16400B3
:2027C00025F044F906F16C000521017106F16401A28B92000260787916F0D2F90BF1010070
:2027E0005FFA80FBE07D401E8345E3DB019E20461AF0D0FBE07D012809D014D3032809D0A0
:202800003EBF04F164007060CAF818800BE0C6F8048008E004F16400706004F18401CAF8BE
:202820001810CAF8388041F62400B0860021F18606F14008B068618B00EB8100F0630221A8
:20284000822088F8000088F80110002194F8210088F8031000F03F0088F80200DAF80400DD
:20286000807D012818BF022803D100F07F00401E04E083280CBF06200220202188F8040029
:2028800088F80510DFF8C0B1DBF83C00416908687A7902EB82028118D1F80100A8F80600C5
:2028A00000207067DAF80410487810F0030F1FD026F00AFB7067DBF818000078C107DBF88A
:2028C000181009784CBF1F200F208A07DBF81810097848BF40F020004A07DBF818100978A5
:2028E00048BF40F040000A0748BF40F08000287600206876DAF80410544A897C01F003017F
:202900006976B87E800000F0040001436976F87EC00000F00800014341F0100169761078F0
:2029200028B1287E00F0FE0041F0400128766976E07F26F0D1FA84F82000204626F0C0FA29
:20294000E07FC10636D5DAF8040094F820204178521C88074EBFD21EF87F121898F80400BC
:20296000C0F380010023D2B200F0030026F0B0FA3880388800F59670C0F11E0190FBF9F012
:2029800009FB001987F80490DAF804104878810739884CBF00204FF49B7040183880788097
:2029A000F06B39883A795218A63200EB8200F067022001E00020F067E87604F13000C6F887
:2029C000880006F18C00DAF804104A78510706D504F138020260687E40F0200006E01C49FF
:2029E0000A6851680160687E00F0DF006876A17F94F8200060F30501A17740F60B00A8F89A
:202A000014000021A8F81610DBF8380000888000F065DBF83800008800B10720287002202E
:202A2000687094F845106980DAF804004178880744BF01216980009808B113F08FFB0020CA
:202A4000BDE8FE8FDD48002070CB0200880E00206C0F00202DE9F84305460C46480414D44F
:202A6000A00025D4A0075FD4600500F18180200500F10881200700F13D81600040F1F8800E
:202A80001DF044F924F08044F2E025F05BF9DFF824140F6D3FB1D7E90A1202F0E04201F07D
:202AA0000A0189184BD025F06DF924F48044DFE0BB48DFF80474016841F080010160B8783B
:202AC000012804D1042022F027F80020B87025F039F90646B348406D016804208847DFF8ED
:202AE000E0130A68904219D12A7EBAB1FA68AAB1DFF8C003806C002800F09780C16840F6D1
:202B000003020988914206D0C06840F604010088884240F08A8005F1140088E040F6C41209
:202B20000860C5E9042284E00EF036FADFF88403006C002840F09D8024F0020498E0D7E936
:202B40000A65D7E90A12AA43B143C7E90A1225F019F9B8680028A8D056EA0500A5D0D7F80D
:202B600008C03869B7F9301032462B46E0479CE725F0E8F8054623F0CDFB002800F0B780FF
:202B8000CC48876B002F00F0B280DFF82C830420CC49002288F81800C64823F0E3FA25F052
:202BA0008EFEC94825F096F8C4480068006B8047C8F810000125042088F8025022F076FAC1
:202BC000386990F82810C8F80400490703D5436A04210022984701201EF0BAF8D8F8040020
:202BE000457617F011FDD8F8040081680B461A465B684BB11E88A6F60306072EF7D805FA8A
:202C000006F616F0830FF2D0537B03F0F003013353730023FD6853602D88A5F60305012DEF
:202C200000F28A80C8F810309FE005F1100020F0C1F9304625F0A6F822F050FA78B12E6A03
:202C400028466FF4807100224FF00073B0479948806B10B11DF05AF801E044F00204EE6989
:202C60002846002100224FF08063B04724F0005434B1984821462830BDE8F84324F03CBEB0
:202C8000BDE8F8838C4EB078012804D1042021F043FF0020B07022F021FA38B170686FF40C
:202CA000807100224FF00073056AA847306950B182480068006B804732697168801A000BDA
:202CC000C860002030617B4D81490022284623F049FA02203076286C20B17E480221283035
:202CE00024F00AFE1DF012F824F40064C0E725F0E6FD41E025F026F8054623F00BFBA0B17D
:202D0000DFF8B48198F8000000070ED498F9000000280AD4684618F0EBF808B1009820B1DC
:202D2000DFF8B49199F8610048B325F0C8FD1CF0EDFF24F008049BE7034633F8385FA5B1B5
:202D400090F8445090F8456005F0F00580F8445006F0F005013580F8455000255360C56306
:202D60004587507B00F0F000507358480022C2610160012023F0BEFD24F4806478E7002663
:202D80000127602E10D009EB0600817A31B18772407A07FA00F0C0B221F0D8FE2036F0E79C
:202DA000CC2108408C010010032088F81800464824F090FF25F083FD444F3E4D002278699F
:202DC00000207861F968F8602846444923F0CAF93A480068006B8047D8F80C10D8F8202058
:202DE000411A02EB1130B0EB113F38BF4FF0FF3098F82410C8F8200021B1D8F80810B0EB01
:202E0000C12F20D923F086FDB8B140F60900414621F83C0F002048804A7B02F0F0020132DC
:202E20004A730A7B02F0F0020A734860F8613960B8F83E0010F4406FFAD00020C8F82000EA
:202E4000012088F824001FF023FD2548002101600220002123F04EFD022021F05DFE102030
:202E600016F0C4FC98F8010020B9D8F80400503025F048F81B48807810B90D2016F0B6FC70
:202E800098F8250028B1002088F82500052021F043FE002088F818001348C8F81C00022057
:202EA000B5F85610B5F85420914208BF07201CF049F93CE7DC220020A82100208C01001008
:202EC00030290020F1620200D440002000100440814F010078220020803D002071FD0100C5
:202EE00000000460A4CF02006948010080B5A4B023902398807801460E91112800F2348291
:202F00000E99DFE811F0120031023102310231024401A3010C02310231023102310231026E
:202F20003102310231023102DD0101208DF88B002398219021984078002840F02781FFE7F3
:202F4000219880798DF87C002198C0798DF87D002198007A8DF87E0000208DF880008DF8EA
:202F60007F002199C97A8DF883102199897A8DF882102199497A8DF8811008211FAA07F06D
:202F800067FA44F6C700C2F200006946086040F29911C1F2010143F63942C0F2020242F2D5
:202FA0002C63C2F20003102015F009FC8DF88B009DF88B0018B1FFE724F004FBFFE744F67F
:202FC000C700C2F20000027842F20C60C2F20000694648601F20086045F60D31C0F201017D
:202FE0001020002315F0EBFB8DF88B009DF88B0018B1FFE724F0E6FAFFE744F6C700C2F225
:203000000000027842F24070C2F20000694648601320086045F60D31C0F20101102001232B
:2030200015F0CDFB8DF88B009DF88B0018B1FFE724F0C8FAFFE744F6C700C2F200000C90D7
:2030400002784EF61D71C1F2010110200D90922315F0B5FB0C9902460D988DF88B200A78F4
:20306000694600230B6047F2ED41C1F2010115F0A6FB8DF88B009DF88B0018B1FFE724F05E
:20308000A1FAFFE744F6C800C2F200006946086040F29911C1F2010143F63942C0F20202E7
:2030A00042F24863C2F20003102015F088FB8DF88B009DF88B0018B1FFE724F083FAFFE76C
:2030C00044F6C800C2F20000027842F67000C2F20000694648600B20086045F60D31C0F24F
:2030E00001011020002315F06AFB8DF88B009DF88B0018B1FFE724F065FAFFE744F6C800D7
:20310000C2F200000A9002784EF61D71C1F2010110200B90922315F052FB0A9902460B9800
:203120008DF88B200A78694600230B6047F2ED41C1F2010115F043FB8DF88B009DF88B0011
:2031400018B1FFE724F03EFAFFE742F60720C2F200000078022818DBFFE721F049FA42F674
:203160000920C2F20000694648600120086044F2F420C2F2000043F28101C0F2020140F6F2
:20318000B83200231BF02AFAFFE7FFE7EDE023981E9043F64111C0F202014DF2B012C0F2FE
:2031A0000202102015F00BFB8DF877001E98407838B9FFE71E9840890CF0FCFB18F0C4FB56
:2031C000FFE79DF87700072827DCFFE742F60B20C2F20000007800BBFFE744F6C700C2F200
:2031E00000000278684600230893036047F2ED41C1F2010107911020099015F0E0FA07998A
:20320000089B099844F6C802C2F200021278EC46CCF8003015F0D3FA17E044F6C800C2F281
:203220000000027840F26521C1F2020105911020069015F0C4FA0599069844F6C702C2F294
:203240000002127815F0BBFAFFE78EE023981C9043F64111C0F202014DF2B012C0F2020276
:20326000102015F0ACFA8DF86F001C98808818F0EEF99DF86F0018B9FFE718F045FCFFE7EA
:2032800044F6C700C2F200000278684600230393036047F2ED41C1F20101029110200490C2
:2032A00015F08DFA0299039B049844F6C802C2F200021278EC46CCF8003015F080FA54E090
:2032C0002398179017988088ADF860001798807B8DF86A0017984089A0B9FFE71798C08889
:2032E000ADF8620017980089ADF8640017984089ADF8660017988089ADF8680001208DF898
:203300006B0003E000208DF86B00FFE745F2D971C1F20101102018AA15F051FA25E0239831
:203320001690169882884DF6F941C1F20101102010AB15F044FA1698C07808B9FFE700E062
:20334000FFE744F27C70C2F2000023F037F90F900F9840B1FFE70F9800890FF0A2F90F98E0
:2033600024F018FDFFE700E0FFE724B080BD70472DE9F04F85B00D460295044615F8011BC9
:20338000DFF858A48DF801100022DFF8541488788DF8002004F5A47624F09CFE01902C211F
:2033A0009DF80100DFF83C24032804F2191804F1660B04F1F40904F5C77700F0C8800728F8
:2033C00000F0C8810F280CD0112800F03981182800F08F811A2800F04A811B2800F0798154
:2033E000D8E199F80910880703D40F2188F8001059E02878697800EB01223280A878E97849
:2034000000EB012272802879697900EB0122B280A879E97900EB0122F280287A3072697ABF
:20342000A87A01EB00227281E87A297B00EB0122B281687BA97B00EB0122F281E87B297C92
:2034400000EB01223282687CA97C00EB01227282E87C297D00EB0122B282687DA97D00EB5D
:203460000122DFF88403F28201788A0658BF1A2712D504F5AA70049071890391307A02909E
:2034800021890191F0880090B38872883188204625F012FDC8B11E2799F80900410706D4F6
:2034A0000F2088F80000204625F002FD06E13A460F21204625F0F8FCF0880090B3887288A0
:2034C000A17938461EF0A6F9FFE004F18600718881800023B288C2800222F1880181027023
:2034E0004380A18EC91DABF81E10628E8188B1EB520F02BFC188A28E914202BF0089E18E67
:20350000B0EB111F21D09BF81000012804BF9BF811000F280CD09BF8150000281CBF9BF86B
:2035200011001A2804D00F218BF81A10FE2183E0FC21204625F0D8FCF0880090B38872885C
:203540003188A07925F0ACFCBFE0102174E099F80900C1070BD499F800101A20012989F8F1
:20356000010002D1FF220D213FE00D2164E000208BF800008BF80600012289F80420294634
:20358000082204F1B00025F087FC0146022204F1B80025F081FC04F1A80701460822384687
:2035A00025F07AFC06460821384625F0C5FC04F19C0704223146384625F06EFC04213846E2
:2035C00025F0BAFC04F1A00025F062FC04F1980025F05AFC8548018841F08001018099F806
:2035E0000000012805D1FF220421204625F048FC6BE09BF811600F2E18BF142E07D00E2E0F
:2036000018BF0C2E03D01A2E18BF162E13D19BF81070204625F030FC0421204625F064FCC5
:20362000012F06D11A2E8BF81A6014BFFD21FB2102E0314600E00421204625F055FC44E0E3
:20364000287830761A286B78737659D11068A779431C4F430020D855A379126811FB03F180
:2036600011440871A179707E24F0C6FD2DE094F806C010682E7811FB0CFC604400F1210551
:2036800006F01F032878B60930B16878F040C00702D5387A042805D120221A21204625F078
:2036A00003FC12E0EB701068A27911FB02F10144204681F82360002124F0ACFD28B99AF834
:2036C00000004FF4804114F079F901208DF8000064E0A67913684E433344D88808B900269D
:2036E0005E701068A27911FB02F1014400200871EBE728786978884204BF084010F0070F4E
:2037000048D19BF81100162805D13A7AA1791346002014F0EDF8022038710121019841776A
:203720000123387A397BB870B28E25F0A1FB318E814206D3B28E397BB878012325F098FB9B
:203740000146B87A398040F04000B872012188F81F10BAE728780F2816D01A281AD1A07928
:2037600013684843184400234370A079126811FB00F15018037199F80B0000F0FB0089F89D
:203780000B001A20A1796FE799F8090000F0FD0089F809002046029925F066FB9BF8110048
:2037A0001A2815D19BF8120017281CBF1028FC280ED19BF81060204625F05EFB012E03BF1F
:2037C0001A208BF81A00FB211A21204625F08CFB9DF8000005B0BDE8F08F00BFC70F002096
:2037E000780E002034480020200E00209C0F00202DE9FE4F0546DFF83004DFF830640278D0
:20380000002A4CD0052A73D0062A00F08080072A18BF082A00F0F7800A2A00F0D881112A77
:2038200002D0132A70D0F6E1DFF804341878002125F076FB04001EBF606D407810F00C0F9B
:203840002DD0216DC0064CBF886C486F0622016801F10805A91C684624F0F8F8287800F0CA
:203860000F0105291BD145096946C0F3801025F0F7FA002813D03168684625F0EDFA07463D
:20388000316804F1380025F0E7FA87420DD0606D4178C80604D440F2014025F0D9FAC0E19E
:2038A000607B40F002006073BBE133681E2010FB07F6981906226946C01D24F0C7F8606DA6
:2038C0004178C806F0D5A17B0129EDD1DFF864038178480605D5E90703D4206D41F20A4167
:2038E00002E0206D41F2044141804183418698E125F004F80028FAD11BF0C2F9012802D057
:20390000012025F0A1FA8CE10AF001FD89E1DFF82853286825F094FA0400F7D020790328F3
:20392000F4D1207A00F00F01072937D1C34800684169497A4A1E11425ED0617A04F10A034A
:203940005A5C02F03F02252A56DBA17A8A09012A52D111F03F0F4FD0007C24F063F8E17A4E
:20396000CA074CBF04F1110204F10B028B0748BF921D0B0748BF921CC90648BFD21C162157
:20398000127852094A43AE498B180A31EB608A5A428699898186DA89C2862DE000F00F0009
:2039A000082829D1A17A880926D129B3A3480168087C24F037F8E17A074688071CD50622F3
:2039C00001F001015143601800F10C01684624F03DF8207AC009FF280ED0694625F040FA8D
:2039E00050B1306800F10D01684625F025FA18B90521384622F0D8F92079032802D000203F
:203A000021F058FF03E1DFF83CB29BF802000024FF281BD024F006F8804608F16C09D9F8B3
:203A2000040025F00DFA2A460179032901D011000CD08368197801F003008D06009003D527
:203A40000124009818B9BFE01000FAD0E9E05D7803F1020A34B31AF8010B7B4B01902C2019
:203A600098F806C01F6810FB0CFC67444FF0010E87F805E0002A1F6898F806E007F11A0CB4
:203A8000019F10FB0EFE07F01F070CF80E7098F806701B6810FB07F01844019BC3F3811303
:203AA000C3761AD10098032808F217171AD0ADB199F8000068B108F1F4000278012A0DD195
:203AC000594B1A78072A04D0082A04BFC078012804D13D21797001203870A2E05B4A1378BE
:203AE000012BFAD098F8940070B32D1FEDB253462A46404619F08EFA00281EBF544908785C
:203B0000002807D13D21797001203870306825F08FF986E04F4801688847064698F8061039
:203B2000DBF804204FF4D07041435018002280F8412108F59E700168807949081AF054FA0D
:203B400045490A6830469047009803281ED043494869007882070DD598F894004A691178E7
:203B6000002814BF281D2846CA0748BFC01C1AF8000000E0812089F808002A460098C3B24A
:203B80009BF8020051460AF02BFA1DE09AF800001CB11B2804BF022D01251C2803D2304991
:203BA0000B5C9D4205D0B8700721404625F09CF90AE01D48017808295146404602D124F06D
:203BC000E7FB01E0FFF7D4FBD9F8040020E0254C207830B3244D286825F032F908B3017926
:203BE00003291ED1017A8A0611D5807AE178C0F38112914202BF217900F01F00814206D149
:203C0000A078002801BF607800280121A170286825F00AF905E0002021F04CFE862025F0AE
:203C20007BF9BDE8F78F00BFC80F0020680F0020D50F0020C00C0020BC0A0020540F00203F
:203C4000E0070020780E002034480020D20F0020E3480020242900202C29002070CB0200B0
:203C60003CCE020050470020AC0C00202DE9F04F0F46380589B018D5DFF8E4532888FF28B7
:203C80000ED0C0B223F0CEFE040009D0A079162125F0C6F8204623F0BBFE204625F0BCF894
:203CA000FF20288087F40060D6E1F80504D50AF088FD87F48070CFE1B80604D524F05AFD39
:203CC00087F02000C8E1F8070CD524F02BFA30B100218160DFF88C03006800B1804787F0EB
:203CE0000100B9E1380704D524F048FD87F00800B2E1F8060FD50021002200230691059230
:203D000004910393029101920091022025F080F887F01000A0E1B8070FD50021002306918C
:203D200005910491039302910191009101223C2025F06EF887F002008EE179074FF01E0845
:203D4000C94EDFF828A340F1CD80C9480022002108920791007825F0E3F80446C5488178EE
:203D6000FF2904BF002021F0A5FDA07A23F05AFE05469AF8000095F82E91002805F5947BA6
:203D800069D0606D807A022818BF032807D130680D3025F039F810B93068C11D079159468E
:203DA000484625F05DF8A0B3606D807C3368002818BF012804D11946584625F04DF804E01C
:203DC0005A464946184625F0FFF8FF2843D018FB00F83068404406225946C01D23F036FEFE
:203DE000306810F80810404400F1010BC01D41F0020908900622616DC87A00F0010085F833
:203E00002E01606D00F10C0105F5947023F01EFE21E05946484624F0F3FFE0B130685A467E
:203E2000494625F0D1F8FF2815D018FB00F8306840440D3024F0E8FF58B9306840440D3040
:203E400024F0E2FF002801BF30684044417F012901D149F0020905F12C004B4601780691A6
:203E60004289120905920122698C0491C0880899029140080390CDF800B0079801900020FC
:203E8000A97924F0C5FFD5F89C017B498842A8790CBF0021012124F0AFFF7848AB790268F1
:203EA0002C214B43134401221A73AB7904684B4323445A73AB7904684B4323449A73AB7918
:203EC00004684B432344DA73AB79006811FB03F10144002008740720A97923F0F1FD87F006
:203EE0000400B9E038060FD500210023069105910491039302910191009101223B2024F01F
:203F000087FF87F08000A7E0F8045DD55C4930680C680D3024F078FF002844D13068C11D43
:203F20000D3024F065FF3EE0606D4178480704F13E0526D5287802281EBF032868780128CB
:203F400030D16978306804F1380225F03DF88146B9F1FF0F15D0306818FB09F948440D3094
:203F600024F052FF68B930684844C11D0D3024F03FFF30684844C11D062204F1380023F0C0
:203F800065FD2878022818BF03280BD130680D3024F03AFF30B93068C11D062204F1300049
:203FA00023F054FD2468002CBED13648DAF8042000784FF480511FF0FBF910B18E2024F0D0
:203FC00013FF87F4805047E0B80505D524F00AFA2D4901200860FEE7780504D513F085FAF2
:203FE00087F4806038E0780405D5812024F0FCFE87F4804030E0B9042DD5244C206810B186
:20400000002021F057FC4FF0FF3020600020204C18F0FCFD216851F8202F684690471D4995
:204020004A6B086BC96A24681B4B019200900293ADF810106B46194A19491A4803921A4AE5
:2040400007922568194AA8471949086007F034FC87F4005000E0002009B0BDE8F08F00BF90
:20406000EA290020480F0020680F0020880E0020D70F0020780E00204DE5011034480020BE
:204080004C0F0020C70F00207C052043380F0020200F00203821002005810200158102007C
:2040A0001C470020D83600201EFB0080A44200201C0F002080B588B0079007988068007862
:2040C0008DF81B00079880880146039141F20541884207D0FFE7039842F23001884200F004
:2040E000028206E207988068C0788DF81A009DF81B00002840F0F681FFE707988168487849
:20410000897840EA0120ADF81800BDF818001CF090FA8DF817009DF81700082801DBFFE7F9
:20412000E8E19DF91A007F2800F0DB81FFE79DF81A109DF8170000EB400243F6B010C2F2E8
:20414000000000EBC20C9CF811300CEB030201338CF8113011739DF8171001EB410100EB83
:20416000C101487C4CF6CD42CCF6CC42A0FB0232920802EB8202801A48740020ADF814008F
:204180008DF81300FFE79DF8130004281BDCFFE79DF8170000EB400143F6B010C2F200006B
:2041A00000EBC1009DF81310084490F90C10BDF814000844ADF81400FFE79DF8130001301D
:2041C0008DF81300DFE7BDF9140046F26761C6F2666150FB01F1480800EBD1719DF81700D2
:2041E00000EB400243F6B010C2F2000000EBC202917400218DF812108DF811108DF810101E
:204200009DF8171001EB410100EBC100C07CC007002840F06581FFE79DF8170000EB400109
:2042200043F6B010C2F2000000EBC10090F9120010F11E0F21DBFFE79DF8170000EB4001A2
:2042400043F6B010C2F2000000EBC100007D022813D0FFE79DF8170000EB400143F6B010C4
:20426000C2F2000000EBC100007D30B1FFE702208DF812008DF8110093E09DF8170000EB41
:20428000400143F6B010C2F2000000EBC10090F9120010F11F0F31DCFFE79DF8170000EB30
:2042A000400143F6B010C2F2000000EBC10090F9120010F1280F21DBFFE79DF8170000EB18
:2042C000400143F6B010C2F2000000EBC100007D012813D0FFE79DF8170000EB400143F6C4
:2042E000B010C2F2000000EBC100007D30B1FFE701208DF812008DF8110051E09DF817002F
:2043000000EB400143F6B010C2F2000000EBC10090F9120010F1320F27DBFFE79DF81700A7
:2043200000EB400143F6B010C2F2000000EBC10090F9120010F1290F17DCFFE79DF817009F
:2043400000EB400143F6B010C2F2000000EBC100007D50B1FFE704208DF8110001208DF814
:20436000100006208DF8120019E09DF8170000EB400143F6B010C2F2000000EBC10090F9BD
:20438000120010F1330F09DCFFE704208DF8110002208DF810008DF81200FFE7FFE7FFE743
:2043A000FFE79DF81200002800F09980FFE79DF8170000EB400143F6B010C2F2000000EBE9
:2043C000C100407D9DF8121088420ED1FFE79DF8170000EB400143F6B010C2F2000000EBA9
:2043E000C100807D022810DBFFE79DF8170000EB400143F6B010C2F2000000EBC100407D16
:204400009DF8121088426AD0FFE79DF8170000EB400143F6B010C2F20000029030F831008B
:204420009DF811309DF810106A46116000211A4619F08CFE02989DF8171001EB410100EB4D
:20444000C1020121D1749DF8171001EB410100EBC100407D9DF8121088420DD0FFE79DF806
:20446000170000EB400143F6B010C2F2000000EBC10100208875FFE79DF8100070B9FFE7E8
:204480009DF812009DF8171001EB410243F6B011C2F2000101EBC20148751FE09DF81000CB
:2044A00001280DD1FFE79DF8170000EB400143F6B010C2F2000000EBC101062048750CE00E
:2044C0009DF8170000EB400143F6B010C2F2000000EBC10102204875FFE7FFE7FFE7FFE733
:2044E000FFE7FFE706E09DF81B0008B9FFE7FFE700E0FFE708B080BD2DE9F84FDFF810547A
:20450000A9780024FF2904BF002021F0D3F9A87823F088FA054605F1680605F5C977316837
:20452000086805F1900808B1EC8311E0B07B002804BFB07E00280BD198F80010002904BF90
:204540003878002804D1287F012804BF688CE8832989E88B4118491C6981284624F040FC31
:2045600001281EBFDFF8AC030178012903D12989EC83491C69814FF6FF79B07E01280DD1D6
:20458000B28B6989288924F027FC38B1298968894A1C93B298422FD0B08B23E098F8000026
:2045A00001280FD1B8F802206989288924F014FC40B1298968894A1C93B298421CD0B8F8A4
:2045C00002000FE03878012816D17A886989288924F002FC80B1298968894A1C93B298421A
:2045E0000AD0788892B2904206D04844688180B224F0EEFB4844E883387801280FD12889F0
:204600007988401C80B2884209DB7C793C71022038702346A9792246002013F069F905F57F
:204620009A71087920B128890021401CE983688105F12E08B07E012812D12989B08B4B1CE0
:204640009BB298420CD1688124F0C2FB8146B8F80410308C01FB0909284619F047F801E0B0
:20466000B8F80490EA8BDFF8B0A2501C00FB09F040F6C41909FB00F100912B68D3F80CE015
:204680007144D9609AF80F30A449DB0703D5B5F812C000230EE00B885B1C1FFA83FCBCF1D5
:2046A000010F03BF05F59A7EBEF806C00CF2DC5CB5F812C00CFB00FC4FF4C87EBCFBFEFCA8
:2046C0000CF1010CC5F814C00B80A86185F82020DFF84CB2AB79DBF8000000F108025B01CB
:2046E000D1582A68116100F10801AB79D26868695B01121ACA50DBF80000AB7900F10802D0
:204700005B01D1582A68916000F10C02A97949010C30535C03F0F00343F002034354DBF8B3
:204720000010A8798A1C400100211152387908B921F0C0F8DBF80000AA7900F110013879F9
:20474000520140088854DBF80010A87901EB4012002151743879042812D1A879DBF80010F6
:20476000400101F110021031135C3A7A43EA82030B54DBF80000AA7900EB4211202048744F
:20478000DBF80010A87901F112024001002111526449A8790A6802F114034FEA401C143225
:2047A00053F80C00AB79D5F814C05B0100EB4C00D050B07E02280DD10A68AE7902F1140351
:2047C000760114329859AB7998F800605B0119FB0600D0509AF80F00C20758D5DBF8000017
:2047E000AC7900F10803640108301A59AB795B01A2F5A862C250DBF80000AC7900F1080361
:2048000064011A592B689A600098121A1A610868AC7900F11403640114301A59AB795B01BB
:2048200002F5F662C250387904280BD10868AC7900F11403640114301A59AB795B0102F52E
:204840006162C2500868AB7900F114025B01D058C5F83401344A106B0B68AC79006803EB8B
:204860004416B8F8043043436424B3FBF4F409FB04F0A0F59660F0612C480378012B30D166
:204880000868A97900EB41120120D07230E0042C0BD10868AC7900F11403640114301A5910
:2048A000AB795B0102F56162C25038790A68AC7904280CBF4FF4AA504FF4E66002F114039D
:2048C00064011A59101AB8F8042009FB02F2A2F516729042BED30821284621F065FA012060
:2048E00014E0506A0968AA79407801EB4213D872DBF80010A87901EB401229684A6007208F
:204900000B4A107028461AF0F3F90020BDE8F28F780E0020D10F0020980C0020BC4800208A
:20492000980E00209C0E002070CB0200CC0F0020C80F002080B586B044F6CE00C2F2000091
:2049400000788006002840F19781FFE742F61520C2F200000078C007F0B1FFE742F61521AD
:20496000C2F200010020087042F62E21C2F200010120087044F2C871C2F200018878C978B0
:2049800040EA012042F6D611C2F200010A881044088006F0A2FBFFE742F61420C2F20000F1
:2049A0000078C007F0B1FFE742F61421C2F200010020087042F62E21C2F2000101200870A2
:2049C00044F2C871C2F200010879497940EA012042F6CE11C2F200010A881044088006F0F5
:2049E0007CFBFFE742F61320C2F200000078C007002854D0FFE742F64420C2F20000007802
:204A0000C007002847D0FFE742F64421C2F2000100200490087042F6BF11C2F200010870F7
:204A200042F23711C2F20001087042F22B71C2F200010870012012F0C7F84DF23410C0F2B9
:204A40000200039001684EF61030C0F20900B0FBF1F017F0F0FA049812F0B6F8039801684C
:204A600042F21070B0FBF1F017F0E5FA049808F0BEFD092008F0BBFD38B9FFE744F2C870A3
:204A8000C2F2000012F033F8FFE700200FF09EF80CF0E4FE02E00CF0E1FEFFE7EBE042F616
:204AA0002E20C2F200000078012840F0D680FFE742F63D21C2F200010120087044F2C87095
:204AC000C2F20000029010F03FFE02980178427841EA022142F6E812C2F2000211808178C6
:204AE000C27841EA022142F6D812C2F2000211800179427941EA022142F6D012C2F2000272
:204B000011800168436844F2D072C2F200025360116041780F201EF091FA029801781020DA
:204B20001EF08CFA0298417911201EF087FA0298017912201EF082FA0298C17813201EF0E9
:204B40007DFA0298817814201EF078FA00208DF817000DF1170015F0A9FD42F63E20C2F2D1
:204B6000000015F0B3FA9DF81700A02808D1FFE742F63E20C2F20000007809284CD0FFE75B
:204B800042F62921C2F200010120087042F63E20C2F20000007809283DD0FFE703F01FFF4E
:204BA000002008F024FD42F6BF10C2F200000078C00738B1FFE744F2C070C2F2000000F0E9
:204BC000B7F8FFE70CF00DFD42F23710C2F200000078C00738B1FFE744F2AC70C2F20000F7
:204BE00000F096FAFFE70CF0FCFC42F22B70C2F200000078C00750B1FFE7012038B9FFE7BA
:204C000044F2D870C2F2000001F0DAFFFFE7092008F0EDFCFFE706E042F62921C2F20001A5
:204C200000200870FFE742F6FB10C2F200000078042809DBFFE742F6FB11C2F20001002078
:204C4000087019F0B2FD07E042F6FB11C2F20001087801300870FFE70CE044F2D071C2F21E
:204C6000000108684A6844F2C871C2F200014A600860FFE7FFE7FFE744F6CE00C2F200006D
:204C80000078400600280CD5FFE744F24470C2F20000019012F0C6FD0198063012F05CFD49
:204CA000FFE744F6CE00C2F200000078C006002809D5FFE744F2F862C2F20002032012218C
:204CC00005F0FAFDFFE744F6CE00C2F2000000788006002818D5FFE742F63D20C2F2000004
:204CE000007801280FD1FFE742F63D21C2F200010020087044F2C872C2F2000204200821F7
:204D000005F0DAFDFFE7FFE744F6CE00C2F2000000784006002809D5FFE744F24472C2F2F5
:204D2000000205200C2105F0C7FDFFE706B080BD80B584B00290FF208DF8070000218DF841
:204D400006108DF805108DF804108DF8030044F61000C2F20000006820B9FFE781208DF837
:204D60000F00D1E101A815F0B1F98DF803009DF90300002840F0AF81FFE79DF8040050B1F1
:204D8000FFE7002008F033FC01469DF8030008448DF80300FFE79DF90300002840F0968145
:204DA000FFE744F61000C2F200000068D0F810C0407A5B210DF105020123E0478DF80700FD
:204DC0009DF90700E0B9FFE7029800888DF806009DF806008DF8050044F61000C2F20000E7
:204DE0000068D0F80CC0407A5B210DF105020123E04701469DF8070008448DF80700FFE790
:204E000044F61000C2F200000068D0F810C0407A5C210DF105020123E04701469DF807002A
:204E200008448DF807009DF90700E0B9FFE7029840788DF806009DF806008DF8050044F642
:204E40001000C2F200000068D0F80CC0407A5C210DF105020123E04701469DF807000844DC
:204E60008DF80700FFE744F61000C2F200000068D0F810C0407A5D210DF105020123E0473A
:204E800001469DF8070008448DF807009DF90700E0B9FFE7029840888DF806009DF80600B3
:204EA0008DF8050044F61000C2F200000068D0F80CC0407A5D210DF105020123E04701469F
:204EC0009DF8070008448DF80700FFE744F61000C2F200000068D0F810C0407A5E210DF143
:204EE00005020123E04701469DF8070008448DF807009DF90700E0B9FFE70298C0788DF832
:204F000006009DF806008DF8050044F61000C2F200000068D0F80CC0407A5E210DF105022E
:204F20000123E04701469DF8070008448DF80700FFE744F61000C2F200000068D0F810C087
:204F4000407A5F210DF105020123E04701469DF8070008448DF807009DF90700E0B9FFE7F0
:204F6000029880888DF806009DF806008DF8050044F61000C2F200000068D0F80CC0407A2B
:204F80005F210DF105020123E04701469DF8070008448DF80700FFE744F61000C2F20000A2
:204FA0000068D0F810C0407A60210DF105020123E04701469DF8070008448DF807009DF915
:204FC0000700E0B9FFE7029840798DF806009DF806008DF8050044F61000C2F200000068E2
:204FE000D0F80CC0407A60210DF105020123E04701469DF8070008448DF80700FFE744F6B7
:205000001000C2F200000068D0F810C0407A69210DF105020123E04701469DF80700084409
:205020008DF807009DF90700E0B9FFE70298C0888DF806009DF806008DF8050044F61000EC
:20504000C2F200000068D0F80CC0407A69210DF105020123E04701469DF8070008448DF858
:205060000700FFE744F61000C2F200000068D0F810C0407A6A210DF105020123E047014669
:205080009DF8070008448DF807009DF90700E0B9FFE70298C0798DF806009DF806008DF802
:2050A000050044F61000C2F200000068D0F80CC0407A6A210DF105020123E04701469DF880
:2050C000070008448DF80700FFE703E0FF208DF80700FFE703E0FF208DF80700FFE7FFE73D
:2050E0009DF8040058B1FFE79DF8040008F07FFA01469DF8070008448DF80700FFE79DF8E8
:2051000007008DF80F00FFE79DF90F0004B080BD80B584B00290FF208DF8070000218DF82C
:2051200006108DF805108DF804108DF8030044F61000C2F20000006820B9FFE781208DF853
:205140000F00C9E101A814F0C1FF8DF803009DF90300002840F0A781FFE79DF8040050B108
:20516000FFE7002008F043FA01469DF8030008448DF80300FFE79DF90300002840F08E815B
:20518000FFE744F61000C2F200000068D0F810C0407A55210DF105020123E0478DF807001F
:2051A0009DF90700E0B9FFE7029800888DF806009DF806008DF8050044F61000C2F2000003
:2051C0000068D0F80CC0407A55210DF105020123E04701469DF8070008448DF80700FFE7B2
:2051E00044F61000C2F200000068D0F810C0407A56210DF105020123E04701469DF807004D
:2052000008448DF807009DF90700E0B9FFE7029840788DF806009DF806008DF8050044F65E
:205220001000C2F200000068D0F80CC0407A56210DF105020123E04701469DF807000844FE
:205240008DF80700FFE744F61000C2F200000068D0F810C0407A57210DF105020123E0475C
:2052600001469DF8070008448DF807009DF90700E0B9FFE7029840888DF806009DF80600CF
:205280008DF8050044F61000C2F200000068D0F80CC0407A57210DF105020123E0470146C1
:2052A0009DF8070008448DF80700FFE744F61000C2F200000068D0F810C0407A58210DF165
:2052C00005020123E04701469DF8070008448DF807009DF90700E0B9FFE70298C0788DF84E
:2052E00006009DF806008DF8050044F61000C2F200000068D0F80CC0407A58210DF1050251
:205300000123E04701469DF8070008448DF80700FFE744F61000C2F200000068D0F810C0A3
:20532000407A59210DF105020123E04701469DF8070008448DF807009DF90700E0B9FFE712
:20534000029880888DF806009DF806008DF8050044F61000C2F200000068D0F80CC0407A47
:2053600059210DF105020123E04701469DF8070008448DF80700FFE744F61000C2F20000C4
:205380000068D0F810C0407A5A210DF105020123E04701469DF8070008448DF807009DF937
:2053A0000700E0B9FFE7029840798DF806009DF806008DF8050044F61000C2F200000068FE
:2053C000D0F80CC0407A5A210DF105020123E04701469DF8070008448DF80700FFE744F6D9
:2053E0001000C2F200000068D0F810C0407A67210DF105020123E04701469DF80700084428
:205400008DF807009DF90700C0B9FFE70298C0888DF806009DF806008DF8050044F6100028
:20542000C2F200000068D0F80CC0407A67210DF105020123E0478DF80700FFE744F610006E
:20544000C2F200000068D0F810C0407A68210DF105020123E04701469DF8070008448DF851
:2054600007009DF90700C0B9FFE70298C0798DF806009DF806008DF8050044F61000C2F2A8
:2054800000000068D0F80CC0407A68210DF105020123E0478DF80700FFE703E0FF208DF884
:2054A0000700FFE703E0FF208DF80700FFE7FFE79DF8040058B1FFE79DF8040008F097F8FD
:2054C00001469DF8070008448DF80700FFE79DF807008DF80F00FFE79DF90F0004B080BD7F
:2054E0002DE9F041FF2805462AD123F04DF810F01F0F22D004201FF093F908B1042016E0EE
:2055000001201FF08DF908B1012010E002201FF087F908B102200AE010201FF081F908B123
:20552000102004E008201FF07BF920B10820BDE8F0411FF077BC20F0BDF90020BDE8F0819F
:205540001FF070FC5FEA000814BFD8F804400024012D46F2A81740F6C4160BD0022D68D0FD
:20556000042D00F0A780082D00F0F480102D00F03281E2E701201FF053F900281EBFB64822
:20558000006800281CBF8788BF0010201FF048F9F8B110201FF046FC05466E6846B90220E6
:2055A0001FF03EF920B102201FF03CFC05466E6801201FF035F9002818BF002C07D0B068D2
:2055C000C11BA06821F0A6FA08B94046B6E72846B4E702201FF024F9A0B102201FF022FC5B
:2055E0000646012075681FF01BF9002818BF002C06D0A868C11BA06821F08CFA0028E4D0D6
:2056000030469BE704201FF00BF908B10420E5E708201FF005F930B108201FF003FC4168BD
:2056200000298BD1D1E701201FF0FAF8002885D0CBE702201FF0F4F858B1884801688848AD
:20564000CA69017801EB81015318DF88774307F5166704201FF0E4F828B104201FF0E2FB33
:2056600006460220BEE708201FF0DAF880B108201FF0D8FB05466E6846B901201FF0D0F8BB
:2056800020B101201FF0CEFB05466E68022090E701201FF0C5F828B101201FF0C3FB064686
:2056A00002209FE710201FF0BBF808B11020B4E70220B9E704201FF0B3F850B16948016811
:2056C00069484A69017802EB01139F89774307F5166708201FF0A4F880B108201FF0A2FBB9
:2056E00005466E6846B901201FF09AF820B101201FF098FB05466E6804205AE701201FF07E
:205700008FF828B101201FF08DFB0646042069E710201FF085F888B110201FF083FB0546B4
:205720006E68002EE8D102201FF07AF80028E3D002201FF077FB05466E68DDE702201FF075
:205740006FF828B102201FF06DFB0646042049E7042069E723F01EF808B1D0F8947004208A
:205760001FF05EF828B104201FF05CFB0646082038E701201FF054F860B101201FF052FBC4
:20578000064608201FF04CF8002818BF002C3FF437AF1AE710201FF043F880B110201FF013
:2057A00041FB05466E6846B902201FF039F820B102201FF037FB05466E680820F9E60220AD
:2057C0001FF02EF828B102201FF02CFB0646082008E7082028E7032022F0FEFD08B1D0F818
:2057E0009C7002201FF01CF850B102201FF01AFB064610201FF014F8002818BF002CC6E7A2
:2058000004201FF00DF828B104201FF00BFB06461020E7E608201FF003F880B108201FF05B
:2058200001FB05466E6846B901201EF0F9FF20B101201FF0F7FA05466E681020B9E6012022
:205840001EF0EEFF28B101201FF0ECFA06461020C8E61020E8E600BF48480020500F002048
:20586000D80F0020540F0020D90F00202DE9F84F054605F14C0AE87D9AF80010DAF8047055
:2058800081424FF00008C0F0938105F1280407F1980907F17B06C34640F08C80A87F7075B5
:2058A000E97FB175DAF808205278930710D5EA7FD30604D5C01E707501F0EF01B175C7F873
:2058C0007CB086F800800022B17D01F0FE016AE1910608D4E08B00B1E07E3076E08B00B164
:2058E000206AC9F80000DAF808004178CA070DD5E08B00281CBF206A002807D0C9F800005F
:20590000A17EE08B814238BF08463076E87FC1060CD5F86B217800EB8100F863F86BA98CE5
:20592000A63100EB8100F867022002E0C7F87CB000203070DAF80800417811F0030F22D17D
:20594000007821F075FF5FEA00081CD098F8B400032809D1E87F810615D440F02000E8773E
:20596000B07D40F020000DE068B9E87F81060AD500F0DF00E877707DA0F112017175B07DFD
:2059800000F0DF00B075E97F002201F0FC01284610F0D2FFB8F1000F36D0E87F810633D5A8
:2059A00098F8B40002282FD141462846BDE8F44F21F05CBFE87F81060AD500F0DF00E87775
:2059C000707DA0F112017175B07D00F0DF00B075DAF808004178C80717D5B07D717D00F0D6
:2059E000F700891E01F03F0182075CBF891D40F00200420644BF491E00F0BF00B0757175F0
:205A0000C9F800B086F81880D2E09AF80020E87D121AD2B28907009240F18280012A07F10E
:205A200044083FD1F86BA98C00EB8100F863A87F00F03F00A8777075E97FB175DAF80820C9
:205A400053785A0703D5801F707501F0FD01B1750023707DE17E00F03F00421898F8000021
:205A6000521CC0F3800192B200F0030023F030FA00F59B70A8841E21A88C90FBF1F18AB2C8
:205A8000B17D01F0FE01284610F056FF86F800B0E08B00B1E07E3076E08B00B1206AC9F870
:205AA000000085E0F86BA98C022A00EB8100F86326D1E87FC10706D5707D811F7175B07D55
:205AC00000F0FE00B0750023707DE17E00F03F00421898F80000521CC0F3800192B200F055
:205AE000030023F0F5F900F59B70A8840022B17D01F0FE01284610F01FFF607FA8F81E000D
:205B0000617F0098491C081AC0B201281CDDF96BAA8CA63201EB8201F9670221317014E0F9
:205B2000F86BA98C00EB8100F863617F0098081AE97FCA06C0B207D5F96BAA8CA63201EB88
:205B40008201F9670221317090B395F81F80A97FD9F80020E37E1A44C9F8002028F0010855
:205B6000DAF808205278530748BF28F00208920748BF28F00808012807D1207F3076C7F811
:205B80007CB028F0100886F800B001F0C004404623F0A2F900F03F002043707586F8168007
:205BA000002208F0FC012846BDE8F84F10F0C4BEBDE8F18F2DE9FE4F0422FF2101A821F06A
:205BC0003BFFC54EB078FF284FF0000900F0828121F028FF0546B07822F07CFA064605F278
:205BE00017100178012908BF417800F0F78005F1740A05F592789AF80E00022808BF8AF869
:205C00000E9095F89201022808BF85F892919AF81C00022808BF8AF81C90B8F80E1019B1D0
:205C200098F80C0011F0CAFE072022F020FD6889AA4C288105F58D77A27AE079217B801872
:205C40004118E07A0818617B41180091B888401CB880398800984118398079885118798009
:205C6000D8F80000C0B19E490B68A97903F10E0C49010E331CF801C030F81CE00099714487
:205C800020F81C10A97949015B5C00EB4300B0F84A105218A0F84A201FF0E0FAE079002897
:205CA00004BFE07A002805D1207B002804BF607B002843D0F07EA6F80E90C009CB4610D0C9
:205CC000307F00F00701022907DA00F0F802401C00F007001043307703E0A879002121F0A4
:205CE0009FF82989E88985F810904118287FA981012804BF688CE883A9790122072021F0DB
:205D0000DFFE607870B1012129779AF80200002804BF9AF80E00002804D19AF81C0008B960
:205D2000688CE88398F81400002860D0022804BFE07A002856D188F8149058E0A9790022D2
:205D4000072021F0BDFEA5F81E90317F11F0070F02D1F07EC00903D0A879002121F060F8B6
:205D6000A07A38B1287F01284FF0010B24D1688CE88321E0F888401CF8804FF0020B287C6C
:205D8000D0B1584908686E69AB7995F82E7000F11402760040F6C4105B0110FB076606F5F5
:205DA000F666D6500968A87901EB4010C17C01F0F00141F00401C174A8892989814206D08D
:205DC00088429ED2081A41F2AB02904299DA287C08B1052901D0082100E03E2128461FF001
:205DE000E3FF77E0607A10B1022188F81410E07BC1070ED520692968C86000F5B470C8607F
:205E000038480168A87901F11402400142F8009015E03448AB79026802F114015B01C858E2
:205E2000C8F810002E48AB79016801F108025B01D0582968C860A5F81E9085F81C902A4A6E
:205E400050690078810702D5A07B802800D181208AF80000254991F8200018B1294601208B
:205E600022F0D1F9284613F053FB02281DD19AF80700022805DB01AA1D4928461AF01AFB2E
:205E80008146284622F0A0FF012823D05FEA09000DD04A4601A928461BF0BAF838B928460D
:205EA00013F036FB012802D114E0012812D00121284622F085FFFEF71FFB01280AD028460D
:205EC00022F078FC22F0BAFC009881B22A4658460FF092FEBDE8F78F780E0020980C002077
:205EE000980E00209C0E002070CB0200CC430020B429002080B586B08DF817009DF81700F6
:205F0000023801460391102800F290810399DFE811F0E7008D018D018D0111006B00B5000B
:205F20008D018D018D018D018D01F700FE0005012A014F0144F6CE00C2F2000000210170D7
:205F40000078FF2845D0FFE7062005A911F09CFDBDF8140078B9FFE79DF8140044F6CE02A6
:205F6000C2F2000210700620012104F0A5FC002006F018FD2CE09DF8141044F6CE00C2F262
:205F80000000017000780C2807D1FFE700BF9DF8120001308DF81200FFE744F6CE00C2F256
:205FA00000000078202807D1FFE700BF9DF8120001308DF81200FFE744F6CE02C2F200028F
:205FC0000620012104F078FC022006F0EBFCFFE709E044F6CE00C2F20000017806200122C5
:205FE0000DF0CAFBFFE722E144F6CF00C2F200000078FF2827D0FFE7072005A911F044FDA6
:20600000BDF8140058B9FFE79DF8140044F6CF01C2F200010870002006F0C4FC0AE09DF88B
:20602000140044F6CF01C2F200010870022006F0B9FCFFE744F6CF02C2F200020720012158
:2060400004F03AFC09E044F6CF00C2F200000178072001220DF090FBFFE703200021029168
:2060600012220DF089FB0299042008220DF084FB029905200C220DF07FFBD8E0082005A913
:2060800011F002FDBDF8140044F6B001C2F200010988884223D0FFE70020019007F0A7FA1A
:2060A000BDF8140000F03F0007F026FDBDF81400C0F380100DF0EBFB9DF81400C0090DF070
:2060C00070FC01980DF00BFE092007F090FABDF8140044F6B001C2F200010880FFE7A6E0AE
:2060E00002200DF1130111F0CFFC9DF8130000EB8000400044F6B401C2F20001088096E0AB
:2061000042F61521C2F20001012008708FE042F61421C2F200010120087088E042F61321C5
:20612000C2F200010120087042F64421C2F20001087042F22B71C2F20001087042F23711CE
:20614000C2F20001087042F6BF11C2F200010020087044F6C002C2F200021070092002213F
:2061600004F0AAFB63E042F61321C2F200010120087042F64421C2F20001087042F22B71EF
:20618000C2F200010020087042F23711C2F20001087042F6BF11C2F20001087044F6C002D8
:2061A000C2F2000210700920022104F085FB3EE042F64421C2F200010020087042F6132175
:2061C000C2F20001087042F6BF10C2F200000078C00738B9FFE744F2C070C2F20000FEF7B2
:2061E000A7FDFFE742F22B70C2F200000078C00750B9FFE7012038B9FFE744F2D870C2F23A
:20620000000000F0DDFCFFE742F23710C2F200000078C00738B9FFE744F2AC70C2F2000084
:20622000FEF776FFFFE704F058FF00E0FFE706B080BD70472DE9F84F05004ED0DFF8EC828E
:2062400098F80000092818BF0A2804D00B281CBF0C280D2801D1212065E1A878002122F07D
:206260005FFE040008BF4220F6D0B14FA978DFF8C4A2397098F8000010B9A8788AF80000CC
:2062800004F14806F068417801F01201022902BF706900280C2012D0607AF0B1A07B0128EC
:2062A00004D1B5F8030008B1812816DA6878402813DA204614F09EFAB06808B9072032E1BD
:2062C000B561287801281FD1A07B00281CBF0128042819D19848007808B9122023E1974963
:2062E0004A78824208BF0920F8D0F068417848070AD504F1220180204A7F04F138010CF076
:20630000CFFD08B10B200EE1687808B911200AE12878DFF82C92DFF82CB2012840F0B280AC
:20632000002121737167217A012903D1B16968794871F7E0112022F09AF901200021207202
:20634000E1726173254612F0CDFF6060DBF8000080477D4A0146106802E06A68426000683F
:206360000028FAD10846D9F8001088476968774848610021387821F03DFD397801221120D2
:2063800021F09EFBF0684178C80605D5284602F0DFFE010024D0C6E0688C21F0E9FA85F85D
:2063A0002100F068007821F043FA04001CBF94F8B400002807D0E87F40F02000E877687D85
:2063C00040F018006875284621F0F4FD0100E2D134B194F8B400012804BF284621F022FDC5
:2063E000F0684178C8071CD505F14204A18800291CBF3068002814D022788A4211D20F2047
:2064000022F0DAFC68B1F06801788DF800100F20A288ADF8012021788DF80310694622F004
:20642000C7FC98F80000A0B94949087800281EBFF068417811F0030F03D04648006822F09A
:20644000B3FC112088F800000121297222F0F6F968E028461EF098FC00281CBFB168002981
:2064600060D0AA7B012A04D02A69808802EB800202E0486E2A69821895F8C010104613F043
:2064800027FD4FE0207A00284CD0DBF80010884705463878012121F0ADFC00202E49207219
:2064A0000A683E7811460B68187A002802BF586D0378B3421FD0C9689142F4D138789AF840
:2064C0000010884224D121F02DFE616888421FD11EF0C4FE40F2014022F0BAFC1F49204A51
:2064E000204808600121107811F068FAD9F800102846884716E01C4E30780128DEDD084667
:206500001EF03AF921F036FE3078411E3170D5E7204622F045FCD9F8001028468847204654
:206520001DF004FE0020BDE8F28F00BFC80F0020D60F0020D50F0020D40F0020780E00209E
:206540002C290020242900204C0F0020F1C50000880E00206C0F002048480020480F0020B0
:20656000C70F00205DEC0000E04800202DE9FE4FDFF81883D8F804601EB9BDE8F74F22F0B7
:206580000BBC3078DFF80893C24FDFF80CA3012818BF02280AD004281CBF0828102805D03B
:2065A000402818BF802800F0A08068E121F0F2FF0028FAD001201EF033F920B101201EF04C
:2065C00031FC1EF0F5F808201EF02AF920B108201EF028FC1EF0ECF83078FEF781FF0500FB
:2065E0009AF8010014BF6C68002400284ED022F021F921F017FA064630680090D0F804B0B9
:20660000B0798AF80300BCB10099284621F0A6F9022811D02978012902D0082963D02EE18D
:2066200028B922F0B5FB00F5E8504C30A060012088F8020011211CE10098017880290CD1A5
:206640000820964938700A78DBF81400012A1ABFD9F824100978012113E007203870B0798B
:2066600021F038FD0446207BC10748BFB0795DD48A480178DBF8140001291CBFD9F824108A
:206680004978C172B0798AF80200BCE0002D11D02878AE420AD1012818BF082802D1002C15
:2066A00003D1F1E000201FF005F9E3E0012802D0082816D0E3E0002CF3D022F069FB0146C5
:2066C000A06801F5C241A83120F024FA28B922F05FFB00F5E8504C30A060112038700121C1
:2066E000C0E0002CDDD00820C0E09AF80100002800F08B8022F09EF821F094F90546286882
:206700000090D0F804B09AF8020021F08BF90190A8798AF803003178402911D1A87921F0E7
:20672000D9FC0446207BC1070AD5A87921F07AF905211FF039FB207B00F0FE002073A3E04B
:2067400021F022FF10F01F0F3AD001201EF068F820B101201EF066FB1EF02AF808201EF079
:206760005FF820B108201EF05DFB1EF021F898F80200FEF7B5FE064674680CB3009921F071
:20678000EDF802281CD03178012902D008290DD013E028B922F0FCFA00F5E8504C30A060C6
:2067A00011203870012188F8021004E0082088F802001221397030465DE000201FF07AF88E
:2067C0000198A8421FD0009934480A78802A0BD10821397000780128DBF814001ABFD9F826
:2067E0002410097801210AE007223A7000780128DBF814000EBF0121D9F824104978C17295
:20680000A8798AF80200009835E021F0BDFE10F01F0F39D001201EF003F820B101201EF0F9
:2068200001FB1DF0C5FF08201DF0FAFF20B108201EF0F8FA1DF0BCFF98F80200FEF750FEC7
:20684000054628786C68012802D008280DD01BE0D4B122F09DFA00F5E8504C30A06001217D
:206860001120387088F8021004E06CB188F80200122139702846BDE8FE4F0FF033BEBDE859
:20688000FE4F00201FF016B8BDE8F78F6847002070CB0200C80F0020780E0020CC0F0020DF
:2068A00010B58AB08C4686460D980C99ADF824E0CDF820C00792ADF81A30ADF818108DF8C9
:2068C000170000208DF81600FF208DF8150008980DF112011CF0D4FF012804D1FFE7012098
:2068E0008DF8270068E1BDF812000146029142F60211884200F00681FFE702984AF6812114
:2069000088423BD0FFE702984AF68221884238D0FFE702984AF68321884200F0BD80FFE72C
:2069200002984AF68421884262D0FFE702984AF68521884223D0FFE702984AF68621884288
